S012000046696E616C496E7075742E7372656318
S113000045C0000060C000005EC000005CC000008D
S11300105AC0000058C0000056C0000054C0000080
S113002052C0000050C000004EC000004CC0000090
S11300304AC000007DC0000046C0000044C000006B
S113004042C0000040C000003EC000003CC00000B0
S11300503AC0000038C0000036C0000034C00000C0
S113006032C0000030C000002EC000002CC00000D0
S11300702AC0000028C0000026C0000024C00000E0
S113008022C0000020C000001EC0000011241FBEBA
S1130090CFEFD0E4DEBFCDBF11E0A0E0B1E0E4EBF0
S11300A0F2E000E00BBF02C007900D92A430B1074C
S11300B0D9F721E0A4E0B1E001C01D92A731B20755
S11300C0E1F7A7D0F5C09CCF813081F0E1ECF0E0FE
S11300D0808188618083E2ECF0E0808186608083A7
S11300E083E38093C4001092C5000895E9ECF0E026
S11300F0808188618083EAECF0E08081866080837F
S113010083E38093CC001092CD000895613041F0D8
S1130110E0ECF0E0908195FFFDCF8093C600089558
S1130120E8ECF0E0908195FFFDCF8093CE00089538
S11301301F920F920FB60F9211248F939F93AF9338
S1130140BF938091040190910501A0910601B091A3
S113015007010197A109B109809304019093050156
S1130160A0930601B0930701892B8A2B8B2B99F45A
S113017081E0809308018091000190910101A09198
S11301800201B09103018093040190930501A093AF
S11301900601B0930701BF91AF919F918F910F908A
S11301A00FBE0F901F90189580B181708093090144
S11301B080911301811111C087EA91E60197F1F74B
S11301C000C0000080910901811104C081E0809386
S11301D0090103C010921301089580911301813025
S11301E019F482E080931201089580B182708093A3
S11301F0110190911501911106C0811109C081E08E
S11302008093150102C0913019F481E080931401A8
S1130210089580E059DF81E057DF109209011092C0
S113022011011092100110920A0111B88FEF82B9D6
S113023017B888B91092150110921301C0ECD0E0E0
S113024008EC10E0888185FF27C086B18170809317
S11302501601811113C060E084E058DF109212018E
S113026010920901109214011092110110921501BB
S113027010921301109216011092100195DFB5DF50
S11302809091120180911401890F809310018823A9
S1130290C9F260E03BDFD6CFF801808185FFD2CF81
S11302A080911001882371F261E081E02FDFCACFD1
S10702B0F894FFCFEC
S10702B40100000041
S9030000FC
